:10000000F8FF022099010000893D0000413D0000F9
:10001000413D0000413D0000413D0000413D0000E8
:10002000413D0000413D0000413D0000893D000090
:10003000893D0000413D0000295800002D59000075
:10004000893D0000893D0000893D0000893D000098
:10005000893D0000893D0000893D0000893D000088
:10006000893D0000893D0000893D0000893D000078
:10007000893D0000893D0000893D0000893D000068
:10008000893D0000893D0000893D0000893D000058
:10009000893D0000893D0000893D0000893D000048
:1000A000BD3A0000C93A0000893D0000893D0000CA
:1000B000893D0000893D0000893D0000ED5B0000A6
:1000C000893D0000195D0000893D0000455E00008B
:1000D000893D00003D5F0000893D0000893D000032
:1000E000893D0000893D0000893D0000893D0000F8
:1000F000893D0000893D0000893D0000893D0000E8
:10010000893D0000893D0000893D0000893D0000D7
:10011000893D0000B9430000893D0000893D000091
:10012000893D0000893D0000893D0000893D0000B7
:10013000893D0000893D0000893D0000893D0000A7
:10014000E1550000893D000035600000893D000058
:100150002D610000893D0000893D0000893D0000BF
:10016000893D0000893D0000D53A0000893D00002E
:10017000893D0000893D0000893D0000893D000067
:10018000893D0000893D0000893D0000893D000057
:10019000893D0000893D0000584B4CF2205210B5BB
:1001A0001A804DF628121A8000BF00BF03F0F0FD40
:1001B000534B4FF030621A60524A9A60524ADA60EA
:1001C000524B4FF470021A60514A136813F4807353
:1001D00004D150490B604FF4A85313604E4B1A786A
:1001E000110703D51A7842F008021A704B4B4C499C
:1001F0002A221A704B4A4C4B8B4204D252F8040FFD
:1002000043F8040BF8E7494B494900228B4202D2DC
:1002100043F8042BFAE74749474A002352F82300E2
:1002200041F823000133662BF8D1444B444A802126
:1002300003F8011B9342FBD1424B3E4A1A60424BEA
:100240008A221A70A3F5805324225A70A0221A70B1
:100250009A799207FCD59A79D406FCD43B4A9379D3
:1002600003F00C03082B394BF9D103221A714622F3
:100270005A719A799006FCD5344A9179334B4906E4
:10028000FBD5334A4FF08271116009215160202261
:100290001A709A7902F00C020C2AFAD12D4B2E4AD0
:1002A0001A602E4B2E4A1A6000225A60072243F829
:1002B000042C2C4AC3F80C2D62B603F00FFF154B2B
:1002C0001B68DA0705D5284803F06CFE274B284A3F
:1002D0001A60284B1B785B0609D5244C244B2268F6
:1002E0009A4204D1204803F05DFE0023236005F00C
:1002F000E5FF03F053FD05F0C3FBFEE70E200540CC
:1003000030800440823F04000100002B88ED00E0B3
:1003100010D0034014D0034002D0074000E0074053
:100320003C1CFF1F7C730000F80EFF1F3C1CFF1FCE
:100330003428FF1F000AFF1F0000000000E400E057
:1003400056E400E008ED00E00050064000400640A2
:100350004480044004800440C010050014E000E024
:10036000BFD4010000002020959A9C5E1CE0034051
:10037000A5C3945A00F00740FFFFFFFFFFFFFFFFF8
:10038000FFFFFFFFFFFFFFFFFFFFFFFFFFFFFFFF7D
:10039000FFFFFFFFFFFFFFFFFFFFFFFFFFFFFFFF6D
:1003A000FFFFFFFFFFFFFFFFFFFFFFFFFFFFFFFF5D
:1003B000FFFFFFFFFFFFFFFFFFFFFFFFFFFFFFFF4D
:1003C000FFFFFFFFFFFFFFFFFFFFFFFFFFFFFFFF3D
:1003D000FFFFFFFFFFFFFFFFFFFFFFFFFFFFFFFF2D
:1003E000FFFFFFFFFFFFFFFFFFFFFFFFFFFFFFFF1D
:1003F000FFFFFFFFFFFFFFFFFFFFFFFFFFFFFFFF0D
:10040000FFFFFFFFFFFFFFFFFFFFFFFFDEF9FFFF23
:1004100010B5054C237833B9044B13B10448AFF33E
:1004200000800123237010BD3C1CFF1F0000000052
:1004300080730000084B10B51BB108490848AFF3A2
:1004400000800848036803B910BD074B002BFBD0A0
:10045000BDE81040184700BF00000000401CFF1F0F
:10046000807300003C1CFF1F0000000070B51E4C94
:100470001E4E23683360054603F0C0FD1C4BAA7E68
:100480001B6836681B492060003318BF01239A425D
:10049000A0EB0600184A08606B760CBF0121002112
:1004A000AB76117003F0AAFD144B186004F04AFFFC
:1004B0000646C0B1697E124B821C00F1820403EB38
:1004C000C113002033F9021F22F8021FA242188034
:1004D000F8D128463146002204F0B2FF3046BDE88C
:1004E000704004F083BF70BD241DFF1FD81DFF1F87
:1004F000F80FFF1FB41DFF1F001EFF1FBC1FFF1FB3
:10050000361EFF1FC0EE207AB7EE007A77EE677ACC
:1005100080ED020AF4EEC77AF1EE10FAC0ED030A9C
:1005200004DD80ED047A80ED011A7047F5EEC07AA3
:100530009FED057A80ED011AF1EE10FA48BFF0EE5A
:10054000477AC0ED047A704700000000014B012299
:100550001A707047AD1DFF1F014B01221A707047C2
:10056000DC1DFF1F10B5044604F0E4FF204610BD5B
:10057000002310B4114C4172026104600372C36025
:1005800041B1194600E0026942F82310427A013372
:100590009A42F8DC0A4B1A680AB90CE01A46536909
:1005A000002BFBD15061002343618380C3808372A1
:1005B0005DF8044B70471860F5E700BFC06C0000A1
:1005C0000824FF1F38B5642003F03AFD0721724864
:1005D000724D00F039FE0C216F4800F087FE0E21AD
:1005E0006D4800F0D3FE6E496B4800F001FE01211A
:1005F000002003F0FDFC0021084603F0E5FC01218A
:10060000102003F0F5FC0021102003F0DDFC132185
:10061000644804F05DFD644801F066F90021624819
:1006200001F01AF96A21604801F026F803215E48BA
:1006300001F01CF901215C4801F030F90022012190
:10064000594801F0EBF90121574801F0C3F9564828
:1006500001F0D6F90221554804F03AFD544805F05E
:1006600083F91321534804F033FD534801F03CF95A
:100670000021514801F0F0F86A214F4800F0FCFFDA
:1006800003214D4801F0F2F801214B4801F006F931
:1006900000220121484801F0C1F90121464801F03A
:1006A00099F9454801F0ACF90221404804F010FDE9
:1006B0003F4805F059F91221404804F009FD0A218C
:1006C0003F4804F009FE3F4B3F4ADA610024032211
:1006D0004FF480315A86596220461C6203F00AFBAF
:1006E0003A4B3B489C61DC611C625C6201F0B6FAEB
:1006F0008121374801F050FB0D21354801F09AFA6D
:1007000002212A4804F0E4FC294805F02DF9314A79
:10071000DFED316A204602F18001B7EE007A07EE84
:10072000900AF8EEE77AB0EE476AA7EEE66A013083
:10073000402822F8024FFDEEC67A21F8024F17EE4C
:10074000903A25F8023FEAD10122002311461648CB
:1007500000F0B0FF02222149052003F0A7FB204A48
:100760001148012100F0CAFF0F4801F017F80122DB
:1007700000231146104800F09DFF02221949042071
:1007800003F094FB0C48164A012100F0B7FF0A4819
:10079000BDE8384001F002B80810FF1F3A1FFF1FE4
:1007A00003200038C46C0000041EFF1FD86C00003A
:1007B0004813FF1FDC6C00001C1EFF1FF06C0000C4
:1007C0000002FF1FEC1CFF1FC09C8D02641DFF1F59
:1007D0009C1DFF1F361EFF1FC10F7C3C4D050000F6
:1007E000DE0FFF1F5905000070B5114D2B68DB07A8
:1007F000064610D50F4C16B10420207070BD20782D
:10080000431183EA901303F0010343EA400000F030
:100810007F00207070BD284603F0DAFA054C0028EE
:10082000E9D002232846237003F0D8FAE3E700BF9B
:10083000C01CFF1F341EFF1F2DE9F84F03F0DEFB25
:10084000B64CB74E2060B74800F05AFBB54800F0F0
:10085000B1FB337800285FD0002B00F039810023F2
:100860003370B14B40F6CC42DA61B04B1A78002AB3
:100870005BD1AF4BDFF80C831A78002A40F030814F
:1008800098F80030002B61D1AA4B1B78002B5DD16A
:10089000A94FAA4DDFF8F0823B78002B14BF4FF42C
:1008A00096794FF4AF7903F0A9FB2B682060C01A4A
:1008B00081450AD8DFF8A092D9F80030002B40F02B
:1008C0006F81B0F5167F00F2928103F097FBD8F8A4
:1008D00000309B4AC01A904240F20081994B1B683D
:1008E00001208342307000F00681022B40F00D8120
:1008F000FFF77AFF00F0070000F16A01DFF88C8251
:100900000B469148C8F8003000F0B6FE00210846BA
:10091000BDE8F84F03F058BB002BA2D0824B002259
:10092000DA61824B1A78002AA3D0202287498648B0
:10093000DFF8508200251D7000F0D4FE7C4B1A7841
:10094000012188F80010002A40F0CA804FF0000909
:10095000794F7A4D87F800904846012103F034FB27
:100960001020494603F030FB2A682068831AC72B01
:1009700031D9DFF81CE2DFF808C2DEF80010286089
:100980000131CEF80010724898F80010CCF8002021
:100990000360002900F042816E4B6F481A68D0F85E
:1009A00000C06E496E4B0CEB821201EB4202023A20
:1009B00003F1200E33F8021F22F8021F7345F9D10C
:1009C0000CF110030022036088F800203F2B0BDCA1
:1009D000DFF8B48160E7574B88F8009083F8009007
:1009E0005D4803683F2BF3DD5A4ADFF8A891116890
:1009F000D9F800304FF0000E7145DABF01311160B7
:100A0000C2F800E0574AC0F800E011680029D4BFDE
:100A10000131002111604B4A12680133C9F80030DE
:100A2000DAB1012A00F0ED80022A40F0E5800020D2
:100A3000FFF7DAFE00F0070000F16A01DFF84C81F1
:100A40000B464148C8F8003000F016FE98F8001038
:100A5000454800F011FED9F80030DFF83CA145F21E
:100A60009F02934205D900220123CAF80020C9F849
:100A70000030DFF81481DFF824B1D8F80030CBF86B
:100A8000003003F0BBFADBF80030384AC8F8000049
:100A9000C01AD2ED006ADAED007A99ED007A344B93
:100AA000344A186006EE100AF8EE666AF8EE465A06
:100AB000B8EE477A86EEA56A2F4B76EE277A82ED5E
:100AC000006AC7EE876ACAED007AC3ED006AE3E602
:100AD00001233370144B0022DA6122E7BDE8F88F5E
:100AE00020220025254920481D7000F0FBFD114BF8
:100AF00001221A702AE7DFF8948098F80010742910
:100B000008D80131C9B20B46FBE66A231946DFF863
:100B10007C80F6E66A231946F3E600BFA81DFF1F96
:100B20000410FF1FC81CFF1F641DFF1FAD1DFF1F0A
:100B3000DC1DFF1FB91CFF1FAC1DFF1FF81DFF1F91
:100B40003F0D0300A01CFF1F041EFF1F581CFF1FAA
:100B5000C41CFF1F381FFF1F9C1CFF1F381EFF1FD8
:100B6000561CFF1FF80FFF1F1C1EFF1FB41DFF1F89
:100B7000FC1DFF1FEC0FFF1FF00FFF1F781CFF1F56
:100B8000C01FFF1FB81CFF1FF41DFF1FF40FFF1F26
:100B9000981CFF1FFC0FFF1F0010FF1FBC1CFF1F36
:100BA000DFF8D8A0DAF8003001210B441020CAF891
:100BB000003003F009FAD9F800302F2B04DC103391
:100BC0000122C9F800303A7023682C682448254F68
:100BD0002B601A1B0260DAF8001023483C600023E7
:100BE0000A2204F0D1FE204804F0BEFE6DE6012189
:100BF000102003F0E9F968E66A231946DFF88080DF
:100C00001FE7DFF87C8098F80030742B03D801339D
:100C1000D9B20B4615E76A23194612E7DFF864805C
:100C200098F80030002B3FF4DBAE104B10481A68E8
:100C3000D0F800E00F49104B0EEB821201EB42029C
:100C4000023A03F1200C33F8021F22F8021F634519
:100C5000F9D10EF110030022036088F80020B5E6F8
:100C6000C41CFF1FC01FFF1F4813FF1F381FFF1F9B
:100C70009C1CFF1F381EFF1F761CFF1FB01DFF1F8F
:100C8000F40FFF1FB91CFF1F2DE9F04F734F744D78
:100C9000744C754E002283B011463846FFF768FC4D
:100CA000724B734A1C604FF000083A60414642465E
:100CB0000A2428461C7287F8188087F8198087F85C
:100CC0001A80FFF755FC6B496B4C29604FF080434D
:100CD00006F1280204213046AB62C5F81880C5F839
:100CE0001C80C5F82080C5F82480C5F82C80A5F8A4
:100CF0003080A5F83280A5F83480FFF739FC5F48D2
:100D00005F4B20604FF0020E4FF4803004F1180268
:100D1000336084F809E04346414684F80880C4F80B
:100D20000C802261B061F06130627062A64601E021
:100D3000DEF8102042F82310627A4F4801339A42BD
:100D4000F6DC504B1A680AB986E01A465369002B44
:100D5000FBD154614FF00008DFF858914A4B4648E8
:100D6000C4F81480A4F80480A4F8068084F80A80EB
:100D70002360DFF844A101F0A9FA484689E8600041
:100D800089F8088089F80980C9F80C8089F81080F2
:100D900004F09CFB3D4A3E493E4D484605F07CFA36
:100DA000DFF818918AF808804FF0010B5046CAF816
:100DB0000070CAF80460CAF80C808AF810808AF8BB
:100DC00009B004F083FB314A3149504605F064FA1A
:100DD000484689F80880C9F80060C9F8044089F8D5
:100DE0000980C9F80C8089F8108004F06FFB274A4D
:100DF0002749484605F050FA284685F808802E60B5
:100E00006C6085F809B0C5F80C8085F8108004F096
:100E10005DFB28461D4A1E4905F03EFA08220621C0
:100E20001D4800F01BFC032202211C4800F016FCA8
:100E3000CDF800B0434664222621194800F040F85E
:100E40009FED181ADFED180A9FED180A184803B035
:100E5000BDE8F04FFFF756BB18607BE7C41FFF1FCC
:100E6000EC1CFF1FBC6F0000641DFF1F9C1DFF1FBB
:100E7000B46C0000F06F0000B81DFF1FC06C0000D4
:100E8000D86F00000824FF1FE46F0000D40FFF1F7D
:100E900065050000E01DFF1F041EFF1F1C1EFF1F35
:100EA000C81CFF1F000000000AD7A33DCDCCCC3DDD
:100EB000A41CFF1F281DFF1F3C1DFF1F501DFF1FEF
:100EC00038B504469DF81050E28008460021237191
:100ED00020602181A172E17221736173A17321618C
:100EE0006161A161E16184F8201084F82110C0B231
:100EF00003F07EF82078294603F066F8204638BDD6
:100F000010B5044682B0007803F064F82379834278
:100F1000238924D053B1013B9BB2E28823819342C1
:100F200020D233B1A37AE37202B010BDE388002B64
:100F30003AD0E37A002BF5D094F821303BB300236C
:100F400084F821301A4B1B680193019B63610122D5
:100F50000023A273A3722361E37202B010BDE28882
:100F600093421AD3E27AAAB994F82030CBB1002385
:100F700084F820300E4B1B680093009B23610022F5
:100F80000123A373A3726261E37202B010BD012357
:100F90006373D7E7002BC5D1CEE701339BB2238122
:100FA000BDE701232373E5E7E37A002BC4D1DBE738
:100FB0000823FF1F037B2BB190F82030002283F021
:100FC000010302731846704710B4047F4160022C7D
:100FD000C26003D05DF8044B04F0C4BB83685DF8C5
:100FE000044B1847F0B4464B464A186BDC6A01794B
:100FF0001170454922790A709A6A00790870002AAE
:1010000046D05968C9688A423ED82168CC8B2404EE
:1010100002F1FF3065D4C0F30E00C883C88B80B2E4
:10102000C882196B0968C88B000452D4C2F30E0041
:10103000C883C88B002480B212F1FF32C88218BF67
:1010400001229C62D96A2E4809680D6800F12404C7
:10105000A54236D00068C46814F0804F0C680D6853
:1010600015BF248824780235013544F000440D6012
:101070004463196B254B09791970214912B1CA6A69
:1010800012791A70F0BC7047521A9A620122D9E79D
:10109000586B196805681E4C0A63CC62CC682D68D1
:1010A0001C4E24F080440327B542CC6083F82570A1
:1010B0001FD1037F4260022BC2601ED0F0BC04F03F
:1010C00051BB016890F82400CC6840F000404863B0
:1010D000CFE7CC8BC2F3080004F47E442043C883DE
:1010E000A7E7CC8BC0F3080004F47E442043C883F8
:1010F00094E72B461146F0BC18478368F0BC1847AC
:101100000810FF1F1F8000401C8000401B80004013
:1011100000000FFFC90F000090E80C00F0B41C683D
:1011200059682568164F174E29432160164D1749F7
:101130001760D66015611160417A154A5C180C3150
:1011400094F82C4053F8215002EBC40149680D601B
:10115000017A5C1803EB8101247ECD6902EBC401A6
:1011600049680D60817A581803EB810390F84000BC
:10117000596C02EBC002F0BC53681960704700BFA5
:1011800001401F00011000380110007800001F808E
:10119000907000004268036805CA10B404682243D6
:1011A0000260DA6889B942F08072D9688A4209D04F
:1011B000196848040CD40A48186042F08040DA608C
:1011C000186119605DF8044B704722F08072ECE7FB
:1011D00042F08041DA605DF8044B1961704700BF4E
:1011E00001401F0043680CCB11680B43136070472C
:1011F0004268036805CA10B4046822430260D868D4
:10120000840100F0E06205D5080900F4706021F463
:1012100070410143D8681143814209D01A685004D3
:1012200009D40848186041F08040D96018611A60FC
:101230005DF8044B704741F08042D9605DF8044B83
:101240001A61704701401F00F0B4254B4568AB425E
:1012500011D0437A2B4493F82C60B14209D005F1A8
:101260002B02002312F8014F8C421AD00133042BB9
:10127000F8D1F0BC70470B292CD0072909D01C29C4
:10128000E7D1184A137823F0030343F002031370E5
:10129000DFE7144A137823F0030343F001031370CC
:1012A000D7E795E806000968114210D00E4A02EB14
:1012B000C60600277468E918276091F82C1002EB25
:1012C000C10203F10C01546855F8212022604372D9
:1012D000F0BC7047034A137823F003031370B8E798
:1012E000046D0000E424FF1F90700000F0B4244B54
:1012F0004568AB4210D0037A2B441E7EB14209D020
:1013000005F11702002312F8014F8C421AD0013365
:10131000042BF8D1F0BC70470C292AD0082909D039
:101320002729E8D1174A137823F00C0343F0080368
:101330001370E0E7134A137823F00C0343F004031F
:101340001370D8E795E80600096811420ED00E4ADE
:1013500002EBC606E918746800272760097E02EBD5
:10136000C10205EB83055268E96911600372F0BCA4
:101370007047044A137823F00C031370BBE700BFD7
:10138000046D0000E424FF1F90700000284A4368A9
:101390009A4270B415D0827A1A4492F84020914251
:1013A0000DD093F840408C423FD093F841408C429E
:1013B0001DD093F842408C4208BF022118D070BC67
:1013C00070470D292BD00E2909D01B29E3D1194CC8
:1013D000227822F0300242F020022270DBE7154C26
:1013E000227822F0300242F010022270D3E701216D
:1013F0001D685C682D6825420FD00F4C04EBC202BB
:10140000002655685A182E6092F8402004EBC2045A
:1014100003EB810362685B6C13608172CFE7054C5C
:10142000227822F030022270B5E70021E0E700BF09
:10143000046D0000E424FF1F9070000038B50446DE
:101440000D460C480121FFF7A5FE00210948FFF7D2
:10145000C9FE09490748FFF7CBFE2946A07802F0EC
:10146000B3FD636903EB8303DB0001D0013BFDD1D6
:1014700038BD00BF0810FF1F000002B838B50C4689
:1014800000210546FFF7DAFF0D4B1B6804F01F042F
:101490004FF00042DA625C63DA6A002AFCDA4FF04D
:1014A0000041FF22986BD9625A63DA6A002AFCDA9B
:1014B0009C6B28460121FFF7C1FFE0B238BD00BF99
:1014C0000810FF1FF8B50E46002114461F460546BA
:1014D000FFF7B4FF124B06F01F02196842F020021A
:1014E0004FF00043CB624A63CA6A002AFCDA8E6B73
:1014F000781EF6B2C0B26FB12044621E4FF00044B5
:1015000012F8013FCC624B63CB6A002BFCDA8242BB
:101510008B6BF5D128460121FFF790FF3046F8BDCF
:101520000810FF1F70B50C46002116460546FFF750
:1015300085FF0E4B04F01F041B6844F020044FF09D
:101540000042DA625C63D96A0029FCDA9C6B4FF0D6
:101550000042DA62E4B25E63DA6A002AFCDA284604
:1015600001219B6BFFF76AFF204670BD0810FF1F2B
:101570002DE9F047C3790D46017A93429946064614
:1015800028BF914600294AD1C9EB03035FFA83F8CB
:1015900008F1FF34E4B200213046FFF74FFFDFF8D7
:1015A00088E0DEF800104FF000426123CA624B630E
:1015B000CB6A002BFCDA8F6B09F1FF305FFA87FAF8
:1015C000C0B2B9F1000F11D028446A1E4FF0004795
:1015D000FF25CF624D63CB6A002BFCDA8B6B02F8E0
:1015E000013F824202D0DEF80010F2E7B8F1000FAE
:1015F0000ED0DEF800204FF00040FF21D062516392
:10160000D36A002BFCDA013CE4B2FF2C936BF5D1DA
:1016100030460121FFF712FF5046BDE8F087FF2456
:101620004FF00008B7E700BF0810FF1F38B50C46A1
:1016300000210546FFF702FF074B1A684FF00043F1
:10164000D3625463D36A002BFCDA946B28460121E1
:10165000FFF7F4FEE0B238BD0810FF1F70B400249D
:1016600005252026C6718471047244728573456114
:101670000180428070BC70477C2994BF0A467D225D
:101680000521FFF74FBF00BF10B500210446FFF74B
:10169000F5FE00F0020303B110BD40F0020203F0BA
:1016A000FF012046D2B2FFF73DFF0520BDE8104004
:1016B00002F0C6BCF8B50F46002116461C4605468A
:1016C000FFF7DCFEA10141EA471141EA061220F0D2
:1016D00070000243D2B228460021BDE8F840FFF76F
:1016E00021BF00BF10B50446FFF742FF204670221D
:1016F0000721BDE81040FFF715BF00BF70B50546D4
:1017000016460C4601B3062900D970BD012920D028
:1017100014490123095DFFF7D5FE134BEA79195DE2
:101720002846FFF7FFFE02212846FFF7A7FE0F4BD2
:101730001A5D012303FA02F20243D2B228460221C3
:10174000BDE87040FFF7EEBE827B3146093002F003
:10175000C7F9044AAB7B115D28463246FFF7B2FE5B
:10176000DBE700BFA06D0000986D0000A86D0000D1
:1017700038B50D4602210446FFF780FE064B5A5D40
:10178000012303FA02F220EA0202D2B22046022129
:10179000BDE83840FFF7C6BEA86D000010B504468E
:1017A000FFF772FF00212046FFF768FE40F00102BC
:1017B000D2B200212046FFF7B5FE20467022072155
:1017C000FFF7B0FE20886388834203D0C0B20121B6
:1017D00002F0FAFB617A69B1A37B04F109020A21E4
:1017E0002046FFF76FFE1D212046FFF747FE8307C7
:1017F00009D410BD2046FFF7BBFF1D212046FFF78F
:101800003DFE8307F5D52046E121BDE81040FFF7F6
:101810000DBF00BF10B500210446FFF70FFE0D4BB2
:101820001B684FF000415022D9625A63DA6A002ADD
:10183000FCDA4FF000417322986BD9625A63DA6A7E
:10184000002AFCDA20469B6B0121BDE81040FFF71F
:10185000F5BD00BF0810FF1F19B90A460121FFF7A7
:1018600061BE3F220121FFF75DBE00BF38B50C46C7
:1018700006210546FFF702FE032C9CBF64000134DD
:1018800000F0F80294BF04F0FF0407242243284626
:101890000621BDE83840FFF745BE00BF70B50E46D3
:1018A00006210446FFF7EAFD022E00F0D70514D00A
:1018B000012E12BFFA23BE2345F0080523612A46F4
:1018C00006212046FFF72EFE20460621FFF7D6FD13
:1018D000281AB0FA80F0400970BD4FF4E17345F06A
:1018E00020052361EBE700BF70B5044600886388DC
:1018F00083420BD0C0B2012102F07AFB60882388BA
:10190000834203D0C0B2012102F072FB3048FFF7DE
:1019100003FC20886388834203D0C0B2002102F018
:1019200053FB01212046FFF789FD052002F088FBCB
:101930000C2200212046FFF7F5FD04215F222046FE
:10194000FFF7F0FD02212046FFF7A8FF08B10123B1
:10195000A37106212046FFF791FD00210546204690
:10196000FFF79CFF2046FFF755FF002600221D21B0
:101970002046FFF7D7FD32461C212046FFF7D2FD57
:101980002672702207212046FFF7CCFD4C2205214C
:101990002046FFF7C7FDE2212046FFF747FEE12181
:1019A0002046FFF743FE2046FFF76EFE31462046F5
:1019B000FFF764FD314600F0FE022046FFF7B2FD5E
:1019C000681EC0B2FD288CBF0020012070BD00BF82
:1019D0000810FF1F38B50C4600210546FFF74EFDE5
:1019E00000F0F3022CB1012C0CBF42F0080242F0CF
:1019F0000C0228460021BDE83840FFF793BD00BF28
:101A000010B500210446FFF739FD002100F0F70270
:101A10002046BDE81040FFF785BD00BF02F00F0271
:101A200042EA0112D2B20421FFF77CBD2DE9F04F4A
:101A300000F1800EB1E8A00AB2E84015C5EA0643FD
:101A4000C6EA2544C7EA0845C8EA2746C9EA0A475C
:101A5000CAEA2948CBEA0C49CCEA2B4AA0E8F807A5
:101A60008645E7D1BDE8F04F70474FF000022DE901
:101A7000F00F00F1800C00BFB1E8A00AC5EA020334
:101A8000C2EA2544C7EA0205C2EA2746C9EA0207B4
:101A9000C2EA2948CBEA0209C2EA2B4AA0E8F807C1
:101AA0008445E9D1BDE8F00F70474FF000022DE901
:101AB000F00F00F1800C00BFB1E8A00AC2EA0543B4
:101AC000C2EA0504C2EA0745C2EA0706C2EA0947B4
:101AD000C2EA0908C2EA0B49C2EA0B0AA0E8F80701
:101AE0008445E9D1BDE8F00F70472DE9F00F089C5F
:101AF00000F5807B51F8045B53F8046BC5EA064798
:101B0000C6EA254952F8045B54F8046BC5EA064856
:101B1000C6EA254AA0E880078345EBD1BDE8F00F6F
:101B2000704700BF0020704700207047F8B51F4C79
:101B3000027A0E465200C1F30721012507462046CE
:101B400084F83B2084F85E5084F85D5001F0B2FCCC
:101B5000F1B2204601F0AEFC2046002101F016FE55
:101B600008B10020F8BD2B46397A0222204601F048
:101B700097FE0128F5D994F8381094F83950A94205
:101B800010D263184A1CD2B2187E84F838209542CD
:101B90004FEA002306D922440231107E84F838101F
:101BA0001843F8BD4FF0FF30F8BD00BFB010FF1F65
:101BB000F8B5144C037A242908BFC2805B000125C4
:101BC0000E462046C1F30721174684F83B3084F8BF
:101BD0005E5084F85D5001F06DFCF1B2204601F0DA
:101BE00069FCC7F30721204601F064FCF9B22046E6
:101BF00001F060FC2946204601F0C8FDB0FA80F0F3
:101C00004009F8BDB010FF1FF8B51C461546064642
:101C10000F46FFF78BFF20EA040040EA050439462F
:101C200030462246FFF7C4FF002814BF204600209C
:101C3000F8BD00BF1F2908B50DD80C2908D840F6FB
:101C40000D5241F61F732E21FFF7DEFF80B208BD53
:101C500041EA0122F5E741F61F72F2E770B501266D
:101C600004460671344801F039FC052002F0E8F919
:101C7000204644F260023021FFF79AFF0546002813
:101C800058D06C2226212046FFF792FF4FF4F972BC
:101C900028212046FFF78CFF40F622722C21204697
:101CA000FFF786FF44F246423C212046FFF780FFC3
:101CB00040F2371224212046FFF77AFF44F2FF0258
:101CC00030212046FFF774FF732202212046FFF7E0
:101CD0006FFF4FF4C87002F0B3F941F61D522E2188
:101CE0002046FFF765FF042211462046FFF760FFFC
:101CF0004FF4987206212046FFF75AFF10220A215E
:101D00002046FFF755FF00220E212046FFF750FF27
:101D100043F63C4210212046FFF74AFF47F67F7208
:101D200022212046FFF744FF362224212046FFF7D8
:101D30003FFF6672284670BDB010FF1F10B5044605
:101D400019B1012911D0002010BD55222021FFF723
:101D50002FFF0028F7D0E28842F00402204692B21A
:101D60002421BDE81040FFF723BF40F273122A215F
:101D7000FFF71EFF0028E6D0882220212046FFF72B
:101D800017FF0028DFD0E288204622F00402242139
:101D9000BDE81040FFF70CBF38B50546F1B180290A
:101DA00003799ABFC1F1800444EA0424002433B9C2
:101DB000224628462221BDE83840FFF7F9BEC288F6
:101DC000002322F0100203712421FFF7F1FE2246C6
:101DD00028462221BDE83840FFF7EABE01230371FF
:101DE00047F67F722221FFF7E3FEEA8842F01002F5
:101DF000284692B22421BDE83840FFF7D9BE00BF83
:101E00009FED057ADFED057AE0EE077AFCEEE77AE2
:101E100017EE901AFFF7C0BF00000143EE7CFF3EB3
:101E200010B5044603F082FC204610BD024A034967
:101E3000034804F031BA00BFD40FFF1F211E000079
:101E4000E01FFF1F38B5074D074C08482A462146BA
:101E500004F022FA2A4621460548BDE8384004F03D
:101E60001BBA00BFD40FFF1F211E0000E81FFF1F79
:101E7000F01FFF1F024A0349034804F00DBA00BFD8
:101E8000D40FFF1F211E0000F81FFF1F024A034945
:101E9000034804F001BA00BFD40FFF1F211E000049
:101EA0000020FF1F024A0349034804F0F5B900BFB0
:101EB000D40FFF1F211E00000820FF1F024A034904
:101EC000034804F0E9B900BFD40FFF1F211E000032
:101ED0001020FF1F024A0349034804F0DDB900BF88
:101EE000D40FFF1F211E00001820FF1F024A0349C4
:101EF000034804F0D1B900BFD40FFF1F211E00001A
:101F00002020FF1F2DE9F8434FF00008064600F19E
:101F10001805474641463046002F4FD003F0AAFA35
:101F2000F0B12C68B4F5803F07F1040100F1040E14
:101F300007F1840C27D05EF8042B34FB02F334FB4A
:101F400012F903F30F0209F30F03C2EA03430A680D
:101F500093FA12F341F8043B8C45ECD803F046FAAF
:101F600008F10108B8F1040F05F10405D2D1002FE2
:101F700040D030463946002203F062FA3846BDE8C8
:101F8000F84303F033BA07F10C0100F10C0451F8E7
:101F9000083C54F8082C93FA12F341F8083C54F822
:101FA000042C51F8043C93FA12F38C4541F8043C9C
:101FB00004F1080401F10801E9D8CFE703F066FA5B
:101FC00007460028CCD02868B0F5803FC8D0391D1E
:101FD00007F184040B6830FB03F230FB13F302F3C8
:101FE0000F0203F30F03C2EA034341F8043B8C42A0
:101FF000F0D8B5E7BDE8F883024A0349034804F086
:102000004BB900BFD40FFF1F211E00002820FF1F67
:10201000024A0349034804F03FB900BFD40FFF1F31
:10202000211E00003020FF1F024A0349034804F02C
:1020300033B900BFD40FFF1F211E00003820FF1F3F
:102040002DE9F84F324B33481A68334912681B792F
:102050000B70824229D2314B1B7843BBDFF8CCA0F6
:10206000DFF8CC90DFF8CC80DFF8CCB0DAF8006095
:10207000D9F80070B8F80040BBF80050002E3AD0F4
:1020800097B33A1D311D02EB450201EB4401FFF706
:10209000CDFC203520343F2C1AD8A8F800403F2D25
:1020A00009D8ABF80050BDE8F88F8038D6E71C4B54
:1020B00001221A60D2E700243846ABF8004003F052
:1020C00095F9184B1A68C9F800201C60BDE8F88F14
:1020D00000243046A8F8004003F088F9124B1A6833
:1020E000CAF800201C60DAE7311D01EB4401FFF75C
:1020F000BCFC2034CFE737B1391D01EB4501FFF7B8
:10210000D4FC2035C7E78022394604F0BFFBC2E784
:102110004420FF1FC007FF1F1F8000405C20FF1FDF
:1021200008E200E05820FF1F6020FF1F5420FF1F1F
:102130004C20FF1F4020FF1F5020FF1F70B50021C3
:10214000044603F097F980B172B61C4A1368002B5D
:1021500029D01B490D6805B31A4E1560002208608E
:10216000328062B6184603F041F92046012103F09F
:1021700081F988B172B6144A1368CBB113490C685F
:1021800074B1134D1460002208602A8062B61846AC
:10219000BDE8704003F02AB970BD086062B6E4E79C
:1021A000086062B670BD074910600B8062B6DCE75C
:1021B000074910600B8062B670BD00BF5420FF1F3E
:1021C0006020FF1F4020FF1F4C20FF1F5820FF1FD3
:1021D0005020FF1F284B29491A68294842F4004221
:1021E0001A600A6842F002020A601A6842F00202AB
:1021F0001A600368002B3EDB224B1B68002B3ADB86
:10220000214A4FF0864313601368002BFCDBF0B5C6
:102210001E4C1F48DFF8A8E01E491F4B1F4A204FE5
:10222000204E214D47F2540CC4F800C00024046035
:102230000120CEF80000DFF88CE0C1F800E04FF498
:1022400080311960194B1360DFF87CE0184A3A605E
:102250003460286000F18E40CEF80000154CB9675C
:102260001548164946F8503C4FF4C0632A61236074
:1022700003600B60F0BD70473C8004404080044028
:1022800000F0024080F0024000F1024004F1024000
:1022900060F0024008F002400CF0024010F00240F2
:1022A00014F00240E0F0024084F002401B1F0100E5
:1022B000001F1F1F08B004400CB0044018B00440B9
:1022C00004F002400100000788F00240F8B5284CF5
:1022D000284F2046012103F0C5F9274A274B002546
:1022E00015601D60FFF776FF254B264A2648DFF86C
:1022F000ACE026494FF4C0661E60236802261A60CF
:102300009E80186122799D8240F20110D8806FF082
:10231000FF00D86002F180428020D88202F50432AA
:10232000D88306209D619E6098838D23157013705D
:1023300023798EF800304FF080730B600F6003F04C
:1023400037F92279124B134C18705311B34003F133
:10235000604302F1100003F5614302F01F02012106
:102360000D4D44F8205001FA02F21A60F8BD00BF8A
:102370004420FF1F010000905420FF1F4C20FF1F2E
:1023800004B004404007FF1F22F0024000F002406A
:102390005C20FF1F000AFF1F412000001B8000403F
:1023A000024A0349034803F077BF00BFD40FFF1F61
:1023B000211E00004420FF1F024A0349034803F086
:1023C0006BBF00BFD40FFF1F211E00006420FF1F42
:1023D000024A0349034803F05FBF00BFD40FFF1F49
:1023E000211E00006C20FF1F024A0349034803F02E
:1023F00053BF00BFD40FFF1F211E00007420FF1F1A
:10240000024A0349034803F047BF00BFD40FFF1F30
:10241000211E00007C20FF1F024A0349034803F0ED
:102420003BBF00BFD40FFF1F211E00008420FF1FF1
:102430002DE9F04F436AC469866985B02BB906EB74
:102440008414846105B0BDE8F08F0546076A02F088
:1024500079FF8046002800F04381B5F93230F21947
:102460000092061D082B31D8DFE813F09B00B8005E
:10247000000115010900C400DB00E9005000EF6A0B
:10248000002F00F03A81D5F824C0009900F1840EA5
:1024900030460A0E531CB3F5807F14BF5B00002347
:1024A000C1F30F29FB5E37F9122009FB03F3C9F5CD
:1024B000803909FB023353FB0CF320F8023B7045D3
:1024C0002144E6D1009B03EB841300932C6A009A0D
:1024D000B5F93430141BAC616BB108F1840101E033
:1024E000B5F93430B6F90020134403F30F0326F88E
:1024F000023BB142F4D828460022414602F0A0FF38
:10250000404605B0BDE8F04F02F070BFAA6ACDF8B2
:102510000C804FEA5209130C6FEA09020192C3F5CD
:102520007F414FF0FF3A871D08F1860BFF31D5F848
:1025300024C0BAFBF1F13046009ABAFBF3FA0296D6
:102540008E46DDF8048020E0C9EB0206360C0EFB57
:1025500006F66FF0004109EB0203891B1B0C0914FE
:102560000AFB03F30CFB01F103F1004390454FEA32
:1025700021414FEA234340F2AE8001800237BB4540
:10258000224400F1020000F0B080130C0AFB03F3B8
:102590001B0C0CFB03F391454FEA1343D4D9038082
:1025A000ECE7D5F824C0584F009900F1840E30466E
:1025B0000B0E5A1C37F9139037F91220C1F30F2A6A
:1025C000CAF5803309FB03F30AFB023353FB0CF318
:1025D00020F8023B86452144EAD173E76F6A009AEE
:1025E0008430334637FB12F123F8021B8342224426
:1025F000F8D167E76F6A27F34F07A86A009A0FFAC6
:1026000087FE08F106037F4208F1860190428CBFE5
:1026100023F802EC23F8027C02338B422244F5D1EA
:1026200050E7686A009A08F18407C043334630FBDC
:1026300012F123F8021BBB422244F8D142E700F119
:10264000840A009BB14603E0D1453B463FF43AAFD4
:10265000B5F9302029F8022BE718F5D3686A03F0A2
:102660000BFA6B6AA0EB63002886EDE76F6A27F32D
:102670004F07009A38B208F106037F4208F186013D
:10268000002AB4BF23F8027C23F8020C02339942DB
:102690002244F5D116E7811DD5F824C0009A863072
:1026A00009E00CFB03F31B1421F8023C02318842C1
:1026B00022443FF407AF930F013B012B4FEAE23373
:1026C000EFD8D30BC3F57F43FF330CFB03F31B0C95
:1026D00021F8023CEAE70CFB03F31B1403804DE7EF
:1026E000AB6903EB8414AC61ACE6009B029EDDF8A1
:1026F0000C8003EB84130093E8E602F077FEAB69ED
:1027000003EB8413AB619DE6B06D000000207047C1
:10271000704700BF064B074ADA6202210022596067
:102720009A7083F8242083F8302083F83220704791
:102730008C20FF1FFC6F00002049214A0B6843F0EA
:1027400080030B6011461368DB07FCD40B689B0702
:10275000F9D41C4B30B44FF08072184D186000E073
:10276000A2B12968184B154C0B40013A002BF7D049
:1027700062B1012B0AD1236813F0800F23680FD0B8
:1027800043F001132360032030BC70470B4A1368E9
:1027900043F4702343F001031360012030BC704701
:1027A00013F48030236804D043F001132360052024
:1027B000F4E743F001032360F0E700BF30100B4063
:1027C00024100B400C100B4001000E0070B50D4D95
:1027D0000D480E4E00232B60FFF7AEFF40F2E734AA
:1027E00003463268520701D507480BB1184670BD41
:1027F0002B60FFF7A1FF013C0346F2D1002808BF80
:10280000052070BD08100B400000DB0C24100B40AD
:10281000F8B5384B1A780AB10320F8BD5B78064644
:1028200003B94902344D354C354B36484FF6FF77E6
:102830004FF481322F6021601A60FFF77DFF00287E
:10284000EBD1314B31491B681C3406F1400206F5CF
:1028500010702B68284F43F0200613F4E00F2E6011
:102860003ED123681E05FCD50B6842F8403C0B683E
:1028700042F83C3C0B6842F8383C0B6842F8343C68
:102880000B6842F8303C0B6842F82C3C0B6842F86D
:10289000283C0B6842F8243C0B6842F8203C0B684B
:1028A00042F81C3C0B6842F8183C0B6842F8143C98
:1028B0000B6842F8103C0B6842F80C3C0B6842F87D
:1028C000083C0B6842F8043C40328242C1D10020EF
:1028D00009490B68084A9B07FBD50D4B1360F8BDEF
:1028E00043F4E00343F020033B60FFF76FFF012058
:1028F000EEE700BFE020FF1F30100B4008100B4038
:1029000004100B4010003A1110100B4020100B4027
:1029100022000001F8B52B4B1A780AB10320F8BD4C
:102920005B78044603B94902274D28482A68284B9A
:102930002A604FF48132016026481A60FFF7FCFEDE
:102940000028ECD1244B254E1B68294604F500775E
:102950000B681D4AD806FBD52B6813F4E00F1AD17B
:1029600004F1400254F8043B3360A242FAD10B68F0
:10297000DFF854E043F010030B600B6813F4E00041
:1029800013D19742E4D110490B680F4A9B07FBD53E
:10299000134B1360F8BD136843F4E00343F01003D6
:1029A0001360FFF713FF0120EDE7DEF8003043F47A
:1029B000E00343F01003CEF80030FFF707FF0120DB
:1029C000E1E700BFE020FF1F30100B4008100B4074
:1029D00004100B4000003A1810100B4020100B4060
:1029E0001200000110B50121007801F0EDFA0E4A45
:1029F000137893B10D49CB7A00241846147063B153
:102A0000DC0703D50A4A8869106018469A0705D47E
:102A1000430702D5074B0A6A1A6010BD064BCA6904
:102A2000C87A1A60F4E700BFF420FF1F0810FF1FE8
:102A300000E100E008E100E004E100E01E4B1A784C
:102A40001AB10078002101F0BFBA70B41B4A1C49CA
:102A5000D47A096801251D70ECB172B6D37ADE070D
:102A60001C4606D5174DD4682E68344094612C60FE
:102A70001C469D0706D5144D13692E68D47A334041
:102A8000D3612B60630705D5104C536925682B4033
:102A90001362236062B61368DA688A4207D00C4C6E
:102AA0001C600C4AD96041F080441C611A600078B7
:102AB000002170BC01F088BAF420FF1F0810FF1F2E
:102AC000F020FF1F80E100E084E100E088E100E009
:102AD00001403F0000003F80F0B41248124A0368F2
:102AE00082B016460093009F4FF00045FF24136804
:102AF00043F480631360D5625463D36A002BFCDA1D
:102B0000B36BDBB2FF2B09D003680193019BDB1B86
:102B10008B42ECD3002002B0F0BC7047012002B021
:102B2000F0BC70470823FF1F00C00240F8B50D46F7
:102B30004FF4967116460446FFF7CEFF284B1A68ED
:102B40004FF0004042F4806245F040011A60D862C4
:102B50001A465963D36A002BFCDA214918204FF03A
:102B600000470A6826FA00F342F48062DBB20A608A
:102B7000CF624B63CB6A002BFCDA083810F1080FE8
:102B8000EFD155B3082D0CBF8721FF21144B1A68D4
:102B90004FF0004042F480621A60D8621A465963CE
:102BA000D36A002BFCDA0E4A002716464FF0004588
:102BB000FF21136843F480631360D5625163D36AC5
:102BC000002BFCDAB36BD8B21B06607000D4F8BDE2
:102BD0000137B7F5807FECD1F8BD9521D6E700BF6E
:102BE00000C00240F0B41549154A0B6882B0164681
:102BF0000093009F4FF00045FF24136843F4806367
:102C00001360D5625463D36A002BFCDAB36BDBB27A
:102C1000FF2B43700AD10B680193019BDB1BB3F5BB
:102C2000967FEAD9002002B0F0BC7047A3F1FE0005
:102C3000B0FA80F0400902B0F0BC70470823FF1FD3
:102C400000C00240F8B58378032B0E46044618BF37
:102C50004E021546FFF7F2FE324611212046FFF7DD
:102C600065FF18B92046FFF7BDFF20B92046FFF7E2
:102C7000B9FE0020F8BD204B2049214A1A608E463B
:102C800059631A4659631E46596305F5FD70A91C20
:102C900005F5FE77D36A13F0F00FFBD0C6F834E0E9
:102CA000B36B01F8013C1B1201F8023C02318F4268
:102CB000F0D105F50075A8420DD20F4A1646D36A29
:102CC00013F0F00FFBD0B36B191200F8021BA842EF
:102CD00000F8013CF3D3084B0949084A196019462A
:102CE0005A63CB6A044A13F0F00FFAD02046936B74
:102CF000FFF778FE0120F8BD00C00240FFFF009002
:102D000000041F80F0B4314E33684FF0004743F4A5
:102D1000806333603D46F762344671633346511C2D
:102D200002F20127E26A002AFCDA1A6811F8016C43
:102D300042F480621A60DD625E63E26A002AFCDAB5
:102D40001A6811F8026B42F480628F421A60DD62E9
:102D50005E63E7D11D49CA6A1C4B002AFBDA1A6878
:102D60004FF0004542F48062FF241A601946DD628C
:102D70005C63CB6A154A002BFBDA13684FF0004501
:102D800043F48063FF2413601146D5625463CB6A19
:102D90000E4A002BFBDA13684FF0004543F48063C2
:102DA000FF2413601146D5625463CB6A074A002B97
:102DB000FBDA936BDBB203F01F024370A2F1050054
:102DC000B0FA80F04009F0BC704700BF00C002407C
:102DD00070B5044671B18378032B0D4618BF4D02C0
:102DE0001646FFF72BFE2A4618212046FFF79EFEC7
:102DF000054620B12046FFF7F5FD002070BD3246A4
:102E0000FE212046FFF77EFF0028F3D04FF4167115
:102E10002046FFF761FE0028ECD02A460D2120460F
:102E2000FFF784FE0028E5D10B4B1A684FF00045F0
:102E300042F48062FF201A601946DD625863CB6A53
:102E4000054A002BFBDA936B13F0FF0FD2D120461B
:102E5000FFF7C8FD012070BD00C00240014B024ACF
:102E60001A607047F020FF1F0320003838B590F932
:102E70000530002B03DBBDE8384000F079B904468B
:102E80000121006900F0B4F9F8B1257D104B13EB76
:102E900045151AD0A3790F4A012B9CBFA369EB619A
:102EA000E36912686B831B0CAB8232B105F116012A
:102EB00005F1180090472B8B6B82637903F07F0339
:102EC0006371BDE8384000F053B9002038BD00BF41
:102ED0000421FF1FF820FF1F10B500F1080204466F
:102EE0000121006A00F02CFA50B1E3693BB9637923
:102EF000A268E26163F07F036371012010BD0120CD
:102F000010BD00BFF8B5837913B182698A4201D23E
:102F10000020F8BD022B0F4605461AD007B32B6AD6
:102F2000E9681C7C4A1E04F109037C1EDA40DC407F
:102F3000A24211D9EB69AB6005F1080606E0A96869
:102F4000286A00F0C5F9013C0028E1D03246002C87
:102F5000F5D1EF600120F8BD0029EBD0A41AEBE712
:102F6000AF60EF600120F8BD2DE9F04F8B4681790D
:102F700085B001290746019205D001233B7100204D
:102F800005B0BDE8F08F42799107F6D5530708D513
:102F9000FC68B9698C4200F0B480FFF7B3FF0028E9
:102FA000EBD0019BFC68002B4AD0DFF8A491DFF83E
:102FB000A4A1DDF80480386A0679013E06EA5426A9
:102FC00016F0FF06C4F3080443D1002C41D1B968C0
:102FD000002973D1FA69002A00F08380BA60C4F531
:102FE0000075ADB245453AD9057C4169023AAA401F
:102FF0000E4416441FFA88F51CB9F868BA69904265
:103000004FD23046012100F0F3F80028B5D04C44EF
:1030100004EB050E74450DD00BF1FF31621E0EF16D
:10302000FF3611F8010F02F8010F9642F9D1C4EBF7
:103030000E04A344FC68B8EB05082C44FC60BAD12C
:10304000BB69A34262D27A79BC6142F080027A7194
:1030500065E0C4F50075ADB24545BA68C4D8017CD9
:103060004069023A8A400644B5F5007F1644C3D150
:10307000DAF80020964204BF4FF0FF32CAF8002071
:103080002F4A10680278FE2A314633D05A46FFF79D
:103090009FFE00283FF471AF0BF5007B4FF40075E5
:1030A000C8E700F065F800283FF467AF2549CAF883
:1030B00000600A7842F001020A70A8E703AA00F053
:1030C00007F900283FF45CAF386A1F4B90F8205096
:1030D000039A4FF6F871102D18BF19468A42FFF473
:1030E0007DAF3846FFF7F8FE00283FF446AF386A58
:1030F000BA6874E75846FFF70DFCB0FA80F0400953
:10310000C7E7019B002B7FF450AF08E00F4B7A79A3
:103110001B6823B1019B13B142F080027A71120740
:1031200009D5BB79002B3FF428AF3846FFF79EFE48
:1031300000283FF422AF019805B0BDE8F08F00BF32
:103140000021FF1F0423FF1FF8FFFF0FF820FF1FC0
:103150000421FF1F4010FF1F00B583B002AB012206
:1031600003F8011D1946FFF7FFFE03B05DF804FBED
:1031700070B51A4C23780BB9012070BD184D194B4E
:10318000286819680378FE2B17D0174AFFF720FE2E
:1031900088B1164E316819B900232370012070BD23
:1031A00028680378FE2B0FD00F4AFFF711FE10B1ED
:1031B00000233360F0E7002070BD0B48FFF7AAFB47
:1031C000B0FA80F04009E3E70748FFF7A3FBB0FA45
:1031D00080F040090028EBD1EDE700BF0423FF1F7A
:1031E0000021FF1F4010FF1F0421FF1FFC20FF1FB5
:1031F00070B5124D2B6883420E4611D00446FFF77E
:10320000B7FF08B9002070BD0D4B18680378FE2B7E
:103210000CD00C4A2146FFF715FD0028F2D02C6097
:10322000094B197831431970012070BD21460548BA
:10323000FFF7EEFAB0FA80F04009EEE74010FF1F0A
:103240000021FF1F0421FF1F0423FF1FF8B590F882
:103250002030C469102B1A4B05460E4617461B68D2
:1032600016D004EBD1149C4216D106F07F06154A05
:1032700042F826701449287E0A78012842F001029B
:103280000A7018D9A968114A0B4413600120F8BDCF
:1032900004EB11249C4208D000212046FFF7A8FF30
:1032A00050B195F82030102B07D1F6B2054A2346CD
:1032B00022F81670DEE70120F8BD2346D5E700BFEF
:1032C0004010FF1F0421FF1F0423FF1FFC20FF1FCE
:1032D000C36801338B4218D370B590F82030102B9F
:1032E000154B044616460D46C0691B680FD000EB0F
:1032F000D11098420FD105F07F01104B53F82130C7
:1033000023F070433360012070BD0020704700EB54
:103310001120984207D00021FFF76AFF50B194F8BE
:103320002030102BE7D1E9B2044B33F81130336071
:10333000012070BD002070BD4010FF1F0421FF1F41
:103340002DE9F04F176883B06FB301374FF0000AD3
:10335000C36803F1010813B38B46064691463C4609
:10336000002505E01C461F46F3680135AB4216D91F
:10337000A04538BF0224214601AA304638BF27465F
:10338000FFF7A6FF631CD91B48B1019A002AE9D1B7
:103390008B4510D01C46F3680135AB42E8D80020BD
:1033A00003B0BDE8F08FA1F1010ABAFA8AFA076802
:1033B0004FEA5A1ACCE7012CF1D9F36801339C4249
:1033C000EDD86FF0704221463046FFF73FFF0028EE
:1033D000E5D0A74214D2013C012CE0D9F3680133B7
:1033E0009C42DCD8621C21463046FFF72FFF0028A4
:1033F000D5D0A74204F1FF3402D0012CEED1CEE7A4
:10340000D9F8001059B10129C9D9F368013399429B
:10341000C5D83A463046FFF719FF0028BFD0C9F893
:103420000070BAF1000F01D0013737600120B7E713
:1034300090F8392090F83800101A704790F838301A
:1034400090F839209A4205D95A1C034480F8382054
:10345000187E70474FF0FF30704700BF90F838304B
:1034600090F839209A4286BF1B18187E4FF0FF3023
:10347000704700BF704700BF38B50546B0F85E0022
:1034800090B195F85D301446C3F1210294420CD8F6
:1034900005F13B001844224600F022FB95F85D3010
:1034A000234485F85D30204638BD0120144628713C
:1034B000EEE700BFB0F85E306BB190F85D30202BC6
:1034C00007D8C218013380F85D30012082F83B1024
:1034D0007047012303710020704700BF0023426939
:1034E00080F8383080F8393080F85C3080F85D3012
:1034F00080F85E3080F85F3006CA30B40D68046929
:1035000043662A4383660A60A370426990F861307B
:103510001649146813441D7A5B7B01EBC5051B0239
:103520006D6803F4E06343F064032B6090F862304D
:1035300013449D7CDB7D01EBC5011B02496803F44C
:10354000E06343F064030B6021685368194205D0BF
:1035500003692C225A70036904229A71036920229C
:103560005A71036980229A7030BC704790700000D5
:1035700038B50269D478E4B2E106054624D51023B3
:10358000D37063061FD504F0040404F0FF03002C7D
:103590005AD042496A6E00230B7085F85D30002ACC
:1035A00066D0904795F85D30002B61D02B69D02212
:1035B0009A702B6995F83B201A712B69012285F8C6
:1035C0005C200222DA7038BD04F0400303F0FF00F3
:1035D000002BD8D19379DBB203F0600160294ED083
:1035E000937803F0100303F0FF01B3B114F001046A
:1035F00037D195F85C3095F85D1099424BD9591C3C
:103600002B4485F85C1093F83B3013712B69D02262
:103610009A702B690222DA70D5E785F860109379E9
:1036200043F0200393712B6995F839101A791F29FB
:10363000D2B2C6D8194800780028C2D06818013123
:1036400085F839100276BCE72A6985F83930C0233D
:1036500093702B69114A1979012111700222DA70D5
:10366000B1E7C02393702B691A790222DA70AAE7B6
:103670000122002385F85D2085F83B3096E703F0B2
:10368000DF039371AB6E23B185F8380095F83900EC
:1036900098472A69A4E71471B8E700BF0523FF1F04
:1036A0002DE9F047374FDFF8E0903B68026982B0C0
:1036B00006460093DDF800800021C825D3789B06DC
:1036C0005BD53B680193019BC8EB03030F2BF5D936
:1036D00049B1102BF2D000209070336980229A708B
:1036E00002B0BDE8F087726996F861301344052195
:1036F000187A00F07DFC726996F86130134401215C
:1037000093F812A0504600F073FC092400215046A3
:1037100000F05AFC2B46013BFDD10121504600F040
:1037200053FC2B46013BFDD1013CEFD1706996F86B
:10373000611001444FF4C8720C7A4B7B09EBC40151
:103740001B02496803F4E06343F064030B6096F8DE
:1037500062300344997CDB7D09EBC1011B0249689F
:1037600003F4E06343F064030B60013AFDD1326976
:10377000D3789B064FF00101A3D4012002B0BDE82D
:10378000F08700BF0823FF1F90700000F0B50369A9
:103790001222DA700269937803F0200385B00446A0
:1037A0000D46002B5ED0B42393703C4922690B6810
:1037B0000093009E05E00B680193019B9B1B042B6B
:1037C00042D8D37803F0200303F0FF00002BF2D09F
:1037D00094F85D30002B31D04FF0000E4FF0020C0A
:1037E00004EB0E0393F83B3013710B680393039FB4
:1037F000206907E09B060DD50B680293029BDB1B3B
:10380000052B28D8C378DBB203F0020202F0FF06D2
:10381000002AEFD080F803C02669F378DBB2DF0618
:1038200032462DD49F062BD5DB0731D40EF1010E85
:1038300094F85D305FFA8EFE7345D1D800201DBB31
:10384000002384F85E3004E09070236980229A702F
:10385000042005B0F0BD86702369802204209A7090
:1038600005B0F0BD03F0FF06FFF71AFF10B9042002
:1038700005B0F0BD236984F85F60B0229A7094E7C8
:103880008023B3700420DAE726698023B370D7E77A
:10389000BEF1000F0CBF02200320F6E70823FF1F34
:1038A0002DE9F04106690025122780F8385080F88C
:1038B0003950F770D0F810C09CF802E00EF0200EDE
:1038C00088B00446884615461E46BEF1000F49D012
:1038D000B4238CF80230784B21691A680092DDF825
:1038E00000E006E01A6801920198CEEB000004287F
:1038F00030D8C87800F0200000F0FF070028F1D091
:103900004FEA480242F00102D2B20A711A680292EA
:10391000DDF808E0206906E01A6803920399CEEB0F
:10392000010105292AD8C17801F0020101F0FF0741
:103930000029F1D04FF0020C80F803C02269D17841
:1039400011F0110722D12DBB002E0CBFA023802324
:10395000937003E08F70236980229A70384608B014
:10396000BDE8F0810EF0FF07FFF79AFE0028F5D0C2
:10397000236984F85F70B0229A70ACE7877023697E
:10398000802238469A7008B0BDE8F0818023937099
:103990000027E3E7012D75D0A021917021690A79F4
:1039A000BE4667464FF0A80C1A680492049805E0DA
:1039B0001A680592059A121A052A4AD8CA7802F09E
:1039C000020202F0FF08002AF2D0CF702169CA7803
:1039D000D2B212F0100F08465AD1920658D5013DC6
:1039E000EDB2012D49D0BEF11F0F3BD90A79012D4F
:1039F000DAD11A680692069D05E01A680792079ABE
:103A0000521B052A46D8C27802F0020202F0FF01DA
:103A1000002AF2D00223C3702269D378DBB2D90620
:103A20003AD49B0634D5B023BEF11F0F93703FD814
:103A3000226904EB0E0312791A760EF1010E5FFA79
:103A40008EFE16B1236980229A7084F839E0774699
:103A500084E781F80280236980229A70774684F88F
:103A600039E07BE704EB0E0291F8048082F81880BD
:103A70000EF1010E5FFA8EFEB9E781F802C02169EE
:103A80000846B0E7A82191702069BE460279B0E7E8
:103A9000774663E78170DEE71021C823D170013BD0
:103AA000FDD12269937803F0F7037746937055E7C9
:103AB00023691B79C5E700BF0823FF1F0148FFF7F3
:103AC00057BD00BFB010FF1F0148FFF751BD00BF39
:103AD0001C11FF1F0148FFF74BBD00BF4410FF1F23
:103AE000844641EA000313F003036DD1403A41D309
:103AF00051F8043B40F8043B51F8043B40F8043BC8
:103B000051F8043B40F8043B51F8043B40F8043BB7
:103B100051F8043B40F8043B51F8043B40F8043BA7
:103B200051F8043B40F8043B51F8043B40F8043B97
:103B300051F8043B40F8043B51F8043B40F8043B87
:103B400051F8043B40F8043B51F8043B40F8043B77
:103B500051F8043B40F8043B51F8043B40F8043B67
:103B600051F8043B40F8043B51F8043B40F8043B57
:103B7000403ABDD2303211D351F8043B40F8043BF7
:103B800051F8043B40F8043B51F8043B40F8043B37
:103B900051F8043B40F8043B103AEDD20C3205D307
:103BA00051F8043B40F8043B043AF9D2043208D0FF
:103BB000D2071CBF11F8013B00F8013B01D30B8871
:103BC00003806046704700BF082A13D38B078DD04F
:103BD00010F003038AD0C3F10403D21ADB071CBF21
:103BE00011F8013B00F8013B80D331F8023B20F88B
:103BF000023B7BE7043AD9D3013A11F8013B00F8C4
:103C0000013BF9D20B7803704B7843708B7883704B
:103C10006046704730B42948294A2A4B2A4D60240F
:103C2000E121047011701B78284C082B30D00A2B2E
:103C30002748284937D00C2B0CBF35225D22122390
:103C40002A60236002600B60234B24491B78244ABE
:103C5000BBB101230B601360224B23491B78234A1D
:103C6000012B26D9042B0FD9082B1ED9102B94BF5A
:103C7000862387230B6013601D4B01221A7030BC12
:103C800070470B601360E7E784230B601360F3E772
:103C900000F58E200F490830212213232A6023606B
:103CA00002600B60D0E73922F7E785230B601360D1
:103CB000E2E780230B601360DEE700BF00400740AF
:103CC000014007408811FF1F08B003400CB00340BB
:103CD00008B00B400CB00B400723FF1F20B003407F
:103CE00020B00B408911FF1F24B0034024B00B40CB
:103CF0000623FF1F68B10E4A1378C3B90D4909782E
:103D00000120107019B10C490C4A0B601360FFF7C9
:103D100081BF074B1A7852B1064A18701378002BEE
:103D2000F5D0054A054B10601860FFF773BF704768
:103D30000723FF1F0623FF1F24B0034024B00B40BE
:103D400008B5104C08E0236859050DD423681A05FE
:103D50000FD42368DB0411D423685803F3D500F093
:103D60002BFB23685905F1D501F040FF23681A05A4
:103D7000EFD501F0D1FF2368DB04EDD502F062F846
:103D8000EAE700BF3480044008B5FFF7D9FF00BF61
:103D9000014B10221A80704700200540704700BF79
:103DA000094908B50B6830B16A461844A2F50052BB
:103DB000904202D20860184608BD02F079FA0C233E
:103DC00003604FF0FF3008BD8C11FF1FFEE700BFFE
:103DD0000078B0FA80F04009704700BF01230370FB
:103DE000704700BF704700BF10B4114B53F830202C
:103DF00092F8804234B1012379B182F880305DF8C5
:103E0000044B704703EBC0035B681A6851B922F09A
:103E100002021A605DF8044B704782F800315DF8C9
:103E2000044B704742F003021A605DF8044B704780
:103E3000907000001C4A02EBC00301295B6811D09E
:103E400004291BD052F83000002280F8802229B1CA
:103E5000022920D0032922D01A6070474FF48072C3
:103E60001A60704752F830004FF4A27280F8801246
:103E70001A601A6822F020021A60704752F8301057
:103E80004FF4A272012081F880021A601A6842F091
:103E900020021A60704740F203121A6070474FF414
:103EA00081721A60704700BF907000003F2848D8A8
:103EB000F8B5042A44D8DFE802F0484B4E03450029
:103EC0004FF410262B4B03EBC0030D465C682168B2
:103ED00011F4E06148D0284B284A2949C3F82C2125
:103EE00004F140422748C3F83411A2F59221264F2D
:103EF000C3F830017C292548C3F83871C3F83C0168
:103F00002CD9A2F594237C2B2AD9A2F596237C2BBD
:103F100028D9A2F598237C2B29D9A2F59A227C2AAC
:103F200027D81B4872B6236823F4702343F08072AD
:103F3000C4F384011643236040F82150266062B622
:103F4000F8BD70474FF43026BCE74FF40026B9E7C0
:103F50004FF44026B6E74FF42026B3E70D48E1E7DB
:103F60000D48DFE70D48DDE7FFF764FFB3E70C48D6
:103F7000D8E7F8BD90700000000AFF1FA90FFF1FCF
:103F8000510FFF1F7D0FFF1F250FFF1FF90EFF1F92
:103F9000D812FF1F9011FF1F0812FF1F6812FF1F8A
:103FA0009812FF1F30B4054B054D064C002210211E
:103FB0001A602A602060196030BC704714D003403A
:103FC00004D0034000D003403F2801D8FFF70CBFC6
:103FD000704700BF3F2806D8044B53F8303093F8A1
:103FE0000002C0B270470020704700BF9070000010
:103FF0003F2801D8FFF71EBF704700BF72B60C49BB
:104000000C4B0D4A1B680868126862B6520102D553
:10401000322B88BF01300949C3F5EA334FF47A7275
:10402000BF33A1FB031302FB00F000EB93107047BA
:104030000823FF1F18E000E004ED00E0898888886D
:104040002DE9F843054672B6204F214B214A1B68E3
:104050003C68126862B6520102D5322B88BF013427
:1040600095B3C3F5EA331C4EDFF86490DFF8648043
:10407000BF334FF47A72A6FB031302FB04F404EB84
:10408000931472B6D9F800103A68D8F800E062B616
:10409000C1F5EA33BF33A6FB03031EF0806FC4EB08
:1040A00093134FF47A7002D0322988BF013200FB9B
:1040B0000233B3F57A7F04D3013D05D004F57A7459
:1040C000DFE701F0FBFCDCE7BDE8F8830823FF1F16
:1040D00018E000E004ED00E089888888F8B53E4BE0
:1040E0003E49DFF818C13E4E3E4ADFF814E13E4D2E
:1040F0003E4C3F4F4FF0006018604FF0805018600A
:104100004FF0005018604FF0804018604FF00040B2
:1041100018600020086028234EF6FF71CCF80010CC
:10412000CEF8003033600EF5012E13602B60236053
:1041300005F500253B6004F50024B36207F5002770
:10414000936206F5012602F501220EF1100E05F626
:10415000E87504F6E87407F57F67103220362B60A7
:104160002360CEF800303B6013603360214EBB61AA
:10417000936109223260A7F5002706F58056203F9B
:10418000083638603160BB60F36047F8042C06F5F0
:10419000FD2607F5FE2706F2FC760437306039600D
:1041A000B360FB6046F8042C0836C7F8FC0F06F62F
:1041B000FC76114831602B6023600260FFF72AFD16
:1041C0001920FFF73DFF00F05DFE40F21310BDE83F
:1041D000F840FFF735BF00BF04E100E00480034072
:1041E000148003401C800340248003402C80034043
:1041F000348003400080034000900B40088003405F
:104200000C800340431E032B14D872B60A4951F8A0
:10421000230068B170B4094C058834F8132046684F
:1042200041F82360521B24F8132062B670BC70471B
:1042300062B67047002070476423FF1F1C28FF1FD1
:10424000013803280BD872B6074B53F8203043B11E
:1042500000205B680130002BFBD162B67047002064
:1042600070471846F9E700BFB823FF1F30B472B695
:104270002B4A13781D0706D52A4B196A002936D018
:10428000996A002941D053781C0706D5254B196C33
:1042900000293ED0996C002939D09378190705D5AB
:1042A000204B196E002936D0996E89B1D3781B073F
:1042B00007D51C4BD3F880207AB3D3F8882011217E
:1042C0003AB162B6184B00221A7030BC00F074BECE
:1042D0000D21154C154D227843F8315003EBC103E5
:1042E0000830013A5860227062B630BC7047042230
:1042F0000D4C0F4D217843F8325003EBC2030830C8
:104300004A1E5860227062B6EFE70521E1E70921F5
:10431000DFE70822ECE70C22EAE71022E8E700BF1B
:10432000BC7200000000FF1FE123FF1FC800400017
:1043300088004000431E032B1DD81B4A400140F05B
:10434000100030B4104472B6184CE25C032A1BD83B
:10435000DFE802F00212151703220D88E25410F074
:10436000080F14BFC823882343EA054308310360BC
:10437000416062B630BC704708300222EDE705228A
:10438000EBE708300422E8E7094A52F8230038B185
:10439000084A52F82300416042F8231062B6E9E768
:1043A00042F82310034AF7E70000FF1FF023FF1F26
:1043B000B823FF1FC823FF1F2DE9F04FDFF818B304
:1043C000DFF818A387B044E0AE4F4FEA930807EB3D
:1043D000C809013ED9F8042003F00803F6B2A2F19F
:1043E000080003F0FF04002B40F0048157F8383038
:1043F0001B0C99B222F8081C002B00F0F280A24B93
:1044000022F8064C42F8044C53F82620002A00F00B
:104410006E819E4D55F8263058609D4C45F826001B
:1044200034F81630194424F8161000F0A5FD0028C1
:1044300000F05681974A984B19F0080F00F10800D8
:1044400018BF1346C9F8040047F8383008238BF822
:1044500000309BF80040E4B261071BD58F4B1B78FE
:10446000ABB18F490A7802F0FF032AB1013BDBB2FE
:104470000B70002B00F0EF848A490A7802F0FF03EA
:104480002AB1013BDBB20B70002B00F0F780042354
:104490008BF8003004F0080303F0FF02002B00F05B
:1044A000D6809AF80030DBB21E098DD19C08DFF867
:1044B000D49159F8342009EBC401C2F38302013AC4
:1044C00049680C2A7ED8DFE802F081817D7D7D7D00
:1044D0007D7D477D7D7D07000868734D4A68734F79
:1044E000734E286081B240F281606A4B6A604FF07F
:1044F000010E0022814249F834303A60C9F8102098
:10450000C9F8182086F800E05E4C00F2F480B1F59E
:10451000D06F80F07883B1F5817F00F0628300F284
:104520008782802900F0EC82822940F01E83A988CE
:1045300001F07F01042900F218835E485E4C890077
:104540000844227062700278930740F1798384F8FE
:1045500000E04FF0020ED8E2544F3A6842B3574B96
:10456000534E5749188834780D784028864645F0D0
:10457000020828BF4FF0400E002C84F00104347074
:10458000CEEB00000CBF8824C82409EBC80680B21B
:1045900085F0010544EA0E447260188049F83840FD
:1045A00072440D7018B9BEF1400F18BF00223A6076
:1045B0003D4B1A88B2F5A06F04D100219A7859704A
:1045C000404B1A70404A012313703FE7364A158862
:1045D00042F22100854200F0FF812E4A49F8342042
:1045E000F0E72C4A2C4B19F0080F18BF134647F878
:1045F00038302BE700F0E0FC344A354952F82630D9
:10460000002B00F0B68158688C5D42F8260003F15B
:104610000802C9F80420032C05D8DFE804F0120FC3
:10462000150204228A551A8819F0080F0CBF882336
:10463000C82343EA024347F8383007E702228A5585
:10464000F1E703228A55EEE705228A55EBE7E007FA
:1046500000F11A82210600F14982A20706D51D4AFF
:104660001D4913780220DBB213700870E30602D5EF
:10467000194B10221A7007B0BDE8F08F00F008FE49
:1046800005E700BF0000FF1F6423FF1F1023FF1F6B
:104690001C28FF1FC800400088004000EC23FF1FBB
:1046A0007523FF1FF423FF1FD823FF1F0C23FF1FB9
:1046B0007423FF1FC0200740E423FF1F2023FF1F98
:1046C000E023FF1F9820074094200740B823FF1FD6
:1046D000F023FF1F882007408020074090200740DC
:1046E000AB4A47F83800137801331370AEE643F84D
:1046F0002600A84D91E642F22100814200F035816A
:1047000000F2AF81B1F5086F00F01B82B1F5106FB8
:1047100040F02B82226AA049A8780870120600F1A6
:104720004583D9F828209D49130600F13A83D9F82A
:1047300030209A49150600F12F83D9F8382097497F
:10474000140600F12483D9F840209449100600F1A2
:104750001983D9F848209149120600F10E83D9F83F
:1047600050208E49130600F10383D9F858208B4955
:10477000150600F1F882D9F860208849140600F186
:104780002983D9F868208549100600F11E83D9F8DD
:1047900070208249120600F11383D9F878207F49EE
:1047A000130600F10883D9F880207C49150600F132
:1047B0001C83D9F888207949140600F11083D9F8B0
:1047C00090207649100600F1C882D9F898207349E4
:1047D000120600F1BC827248724A73490190734814
:1047E0006C4D734C0497002305960295804617463E
:1047F0000E461D460394386828B1446800F0DCFB7F
:104800002046002CF9D100233B60029B30681A46F9
:10481000002342F8253028B1446800F0CDFB204643
:10482000002CF9D100223260019A98F8003011462C
:10483000002241F8042B039A0191023B4FF0000142
:1048400022F81510032B09D8DFE813F04B01040000
:104850004B0104004FF0010388F800300135042DAE
:1048600007F1040706F1040608F10108C3D1514C11
:10487000514B2278464D049F059E002129701A70E5
:10488000130700F14F8262784C49DFF810810A70FB
:1048900010074FF00001C9F83010C9F8381000F1C6
:1048A0002B824749A2780A700021C9F85010C9F834
:1048B00058101107DFF8E48000F1DC81E27841490B
:1048C000364C0A7000211207C9F87010C9F8781028
:1048D00000F1B98133780193002183F00102C9F816
:1048E0009010C9F898100020029080468446044633
:1048F00035490D7845F0020E09EBCE030393019B79
:10490000002B039B5C600CBF8824C82444EA080386
:1049100085F0010449F83E3032700C70DFF87CE01D
:104920002A4BDFF8A480002840F02681BCF1400F1C
:104930001BD144F0020C09EBCC03029CDFF85CE0D5
:104940005C60002A40F02E81020442F088029DF84B
:1049500004304EF83C20044433700D702346402848
:1049600003D100201A4A3B6010801A4A01231370B9
:1049700028E68B5D032B00F22D8101A252F823F073
:104980004D4400004D440000D74A0000DD4A0000BD
:10499000E123FF1F1023FF1FEC23FF1F0000FF1F59
:1049A000C823FF1F6423FF1FB823FF1FF023FF1F2F
:1049B0001C28FF1FBC720000C4200740C82007400D
:1049C000CC200740D0200740E023FF1F7423FF1FA7
:1049D0002023FF1F94200740928892B9B14A0D7896
:1049E0004878157050708D78C8789570D0701068C0
:1049F0000D79157186284D7989795571917100F07D
:104A0000A580A949A94E0A78307882F001050028CE
:104A100042F002020D700CBF8821C82149F8321003
:104A200009EBC20280F00100002130705160D4E532
:104A300040F20232914240F08D80A98801F07F015E
:104A4000042900F292806A88002A40F08E809848FB
:104A5000CDF804E089000844017841F002010170BA
:104A600041E742F2212081427BD1A988002940F010
:104A7000E480904B904A9148AC781D681560CDF861
:104A800004E00A4604702EE78D4B8E4886491A6171
:104A90004FF0020E80F800E0854F0A708A491960D5
:104AA00099608A4E8A4D8B4C9A610D213970FF2195
:104AB0003170DFF840E229702270874D874A8EF806
:104AC00000109F27012406F8047C5D600470DA6002
:104AD00007B0BDE8F08F00238B55B7E401238B5559
:104AE000B4E44FF0000388F80030B7E67049784B23
:104AF00080220D2008701A70A2077FF5B7ADAEE5D1
:104B0000774C4FF0020E22706270EA88724580F096
:104B1000A38165490D78402A944645F0020E28BFCE
:104B20004FF0400C04EB0C0309EBCE000293012381
:104B300044604FEA0C48CCEB020001930022C824E9
:104B4000E4E6684A664C12782270DEE7664A0F2176
:104B5000117056E7B1F5A06F07D101230022019330
:104B6000C1E642F221329142F7D0514A0F2313702D
:104B7000544A0123137025E540287FF6DAAE44F04D
:104B800002040EEBC401029E4E60BAB19DF80410FF
:104B9000564A19703346403888F8005040334EF872
:104BA0003420DFE69DF8043033700204029B0D7060
:104BB00042F0C80203444EF83C20D0E69DF80410B1
:104BC0001970029B404A88F80050403840334EF834
:104BD0003420C7E619F0080F0CBF022303238B55BE
:104BE00034E4A98801F07F010429BED86A88002A2C
:104BF000BBD12F48CDF804E089000844017821F0AA
:104C0000020101706FE63A4A5468002CADD0688802
:104C1000B5F804E003E00C325468002CA5D01388EA
:104C20008342F8D153887345F5D1000A03280CBF9D
:104C300094F800E0B2F808E067E7CDF804E052E647
:104C40004FF0020E61E700F097F9002800F0F180C4
:104C500008301D4AC4F88400C4F8802000F08CF9A4
:104C6000002800F0E0800830204AC9F88C00C9F81C
:104C700088202FE600F080F9002800F0E680083058
:104C8000114AC8F86400C8F8602000F075F90028DF
:104C900000F0D5800830154AC9F86C00C9F86820C2
:104CA0000CE600BF2428FF1FE023FF1F7423FF1F13
:104CB000C02007400823FF1F2C28FF1F0424FF1FCC
:104CC0000000FF1F94200740880040008820074014
:104CD00080200740982007402423FF1F7823FF1FD0
:104CE000E423FF1FEC23FF1F7523FF1FC8004000B4
:104CF000C07200008C20074000F03EF9002800F050
:104D00008C8008305D4AC8F84400C8F8402000F0A4
:104D100033F900287BD00830594AC9F84C00C9F84B
:104D20004820BEE500F028F900286AD00830534A30
:104D3000C9F82400C9F8202000F01EF900285AD034
:104D400008304F4AC9F82C00C9F828209BE5D1F853
:104D50009C00083800F030F93DE5D1F8940008389F
:104D600000F02AF931E5C86D083800F025F902E5B0
:104D7000486D083800F020F9F7E4C86C083800F0F6
:104D80001BF9ECE4486C083800F016F9E1E4C86B54
:104D9000083800F011F9D6E4486B083800F00CF937
:104DA000CBE4C86A083800F007F9C0E4606A083844
:104DB00000F002F9B5E4C86F083800F0FDF8F2E43D
:104DC000486F083800F0F8F8E7E4C86E083800F0DB
:104DD000F3F8DCE4486E083800F0EEF8D1E4D1F8DE
:104DE0008C00083800F0E8F8E9E4D1F884000838CD
:104DF00000F0E2F8DDE42A78C9F8280001322A70D0
:104E000041E52A78C9F8200001322A7094E72A780F
:104E1000C9F8480001322A7043E52A78C8F84000F2
:104E200001322A7073E72A78C9F8880001322A70A3
:104E300050E52A78C4F8800001322A700EE72A78FB
:104E4000C9F8680001322A7038E52A78C8F860008D
:104E500001322A7019E700BEBEF1400FF44628BFA8
:104E60004FF0400C04EB0C0302930123CCEB0E003B
:104E70004FEA0C48002201933AE500BF8800400049
:104E8000C80040002DE9F04101F0BCF92F4C304B37
:104E90003048DFF8D880304F304D314EDFF8D0C089
:104EA000DFF8D0E000221A605A609A60DA601A6176
:104EB0005A619A61DA611A625A629A62DA621A6314
:104EC0005A639A63DA631A645A649A64DA641A65F4
:104ED0005A659A65DA651A665A669A66DA661A67D4
:104EE0005A679A67DA67C3F880202168C3F884207C
:104EF00041F480212160016841F040710160C3F3F9
:104F0000072188F8001004F52834C3F307411B0E6D
:104F10003970CC342B7000F12040FF238CF8003026
:104F2000104D8EF8003000F6041033700E49012346
:104F300008F8083C702622704FF40014102207F87D
:104F40002C3C2E7004600A70BDE8F081348004406F
:104F50000000FF1F00D80040B0200740B4200740E9
:104F60001020074035E400E0082107409C2007405E
:104F7000802007408820074072B60D480268B2FAC8
:104F800082F30B2B10DC4FF00041D94022EA0102E2
:104F9000026062B6074803EBC303DB00C2180021BE
:104FA000C15010465160704762B60020704700BF84
:104FB0004413FF1F980BFF1F0D4B0E4AC31AA2FB91
:104FC00003231B090B2B0CD80B4A127852B972B66B
:104FD0000A484FF00041026821FA03F31A430260C5
:104FE00062B67047064A1278002AF0D0FFF73EB941
:104FF000980BFF1F398EE338E123FF1F4413FF1F77
:10500000EC23FF1F38B50F4D286878B1438802881C
:10501000C118013393420C7A02D24380204638BD36
:10502000FFF7CAFF002320462B6038BD064B1B78D4
:105030002BB10320FFF7E6F828600028E6D14FF0F7
:10504000FF3038BD0024FF1FEC23FF1F10B5094CB3
:10505000206818B143881844007A10BD064B1B78AD
:105060002BB10320FFF7CEF820600028F2D14FF0DB
:10507000FF3010BD0024FF1FEC23FF1F044B054A27
:105080001B6890881BB11A885B88D31A1844704734
:105090000024FF1F1C28FF1F0B4B1B789BB110B572
:1050A0000A4C206848B1FFF787FF002303202360E4
:1050B000FFF7A8F830B1FFF77FFF0320FFF7A2F852
:1050C0000028F8D110BD7047EC23FF1F0024FF1FFC
:1050D0002DE9F04FDFF8F89083B0012289F8002025
:1050E000019169B3DFF8EC80364F019E8346D8F812
:1050F0000000B0B3344D4488C4F14001B14228BF30
:10510000314604EB010E00221FFA8EFE2A70761A39
:10511000A0F802E000F1080251B1013C22445944D8
:105120001BF8014B02F8014F8B45F9D1B0F802E0B2
:10513000BEF13F0F0BD8254A05211170002ED6D1A4
:105140000198002389F8003003B0BDE8F08F4022B9
:10515000028001460420FFF7EDF80022C8F8002085
:10516000E9E73A782AB3184D4DF2E9044FF0010A05
:1051700007E0013C16D02A78A2B900F09FFC3A78EB
:10518000BAB10420FFF75CF80728F2D889F800A02C
:10519000FFF7F2FEC8F800000028ACD10C4B013C30
:1051A0001870E8D101234FF0FF302B7003B0BDE839
:1051B000F08F00234FF0FF3089F8003003B0BDE8D6
:1051C000F08F00BFEC23FF1FFC23FF1FF423FF1F02
:1051D000F523FF1FF823FF1F00B583B002AB0121A9
:1051E00003F8010D1846FFF773FF03B05DF804FBE9
:1051F00038B50E4D0E4C28680123237028B1408825
:1052000000232370C0F1400038BD0A4B1B7813B94E
:105210000020207038BD0420FFF712F80728F7D8C7
:10522000FFF7AAFE28600028E9D1F1E7F823FF1F65
:10523000F523FF1FEC23FF1FF8B5114B1B788BB133
:10524000104E114D346801272F7064B10F4A6388E6
:1052500000271770214623800420FFF76BF8376082
:1052600000232B70F8BDFFF787FE084B28B10146DD
:1052700004201C70FFF75EF8F2E71F70F0E700BF34
:10528000EC23FF1FF823FF1FF523FF1FF423FF1F4D
:1052900038B50E4B1B7873B90D4C216861B103F022
:1052A000FF054B880B800420FFF744F8256038BDCC
:1052B000084B01221A7038BDFFF75EFE0028F7D0B8
:1052C0000146BDE838400420FFF734B8F523FF1F3E
:1052D000F823FF1FF423FF1FB1F5A06FF0B428BF20
:1052E0004FF4A06172B6134A134C144B10600022A5
:1052F000228003F1A00443F8042FA342FBD1B1B1F3
:105300000F4E002301275D0903F01F0456F82520E6
:1053100007FA04F4013322438B4246F82520F2D1E8
:105320000023438001338B4200F18400F9D162B63F
:10533000F0BC70471024FF1FBA24FF1F1424FF1F66
:105340001824FF1FF0B472B6234F244E3C8806F198
:10535000A00306EB8400984212D256F8241099B9A3
:10536000021D06F1A305631CAD1A03EB950503E0CE
:1053700052F8041B41B90133AB421C461046F7D129
:1053800062B60020F0BC7047B1FA81F34FF00042E2
:10539000DA4021EA0201016001B9013410493C8080
:1053A0000A88013294B20C8062B6801B8010C3EB75
:1053B00040100C4B0C4D196800EB4010830003F6B5
:1053C000FC730120C8542E88B24201EB030088BF51
:1053D0002C80F0BC704700BFBA24FF1F1824FF1FA9
:1053E000BC24FF1F1024FF1F0C24FF1F428872B62D
:1053F0000378012B03D9013B037062B67047531148
:1054000070B40C4C0C4D54F823102E88D2434FF03E
:10541000004002F01F0220FA02F21143074A44F84A
:105420002310B34238BF2B801388013B138062B630
:1054300070BC70471824FF1FBA24FF1FBC24FF1F35
:10544000C368B3B130B401E0DB688BB1187A904225
:10545000FAD158685C7A006950F82450002DF3D1D5
:1054600040F82410087801300870DB68002BEDD17B
:1054700030BC7047437A8B4206D90369002253F847
:10548000210043F8212070470020704738B5437A47
:105490008B4219D9036953F82140002243F8212097
:1054A00094B12378012B0DD9FFF74CFF054620B1AD
:1054B0008022211D0430FEF713FB2378013B23706B
:1054C000284638BD204638BD002038BD037C23BBAC
:1054D0004368427A5B7A9A421FD830B472B6046845
:1054E000E3682BB3DA6832B119688C4216D01346E0
:1054F000DA68002AF8D1D8600023C360A37A0133A8
:10550000A37202684168012313728A7A1A448A726C
:1055100042681372037462B630BC70475D684168BC
:105520008D42E4D1198903899942F4D01346DFE70B
:10553000E060E1E7037C10B5002B32D04368427A8B
:105540005B7A9A422DD872B60268D36843B3984208
:1055500002D129E0984202D0DB68002BFAD14368DF
:10556000417A1B69044653F8210048B1FFF73EFF1A
:1055700072B66368627A1B69002143F822102268C0
:10558000937A013B937223689A7A02B91A7262681D
:10559000937A013B937263689A7A1AB10023237459
:1055A00062B610BD1A72F9E7C368D360D7E700BFCF
:1055B000084B1A785AB90848084910B4D024047026
:1055C000012210460A601A705DF8044B70470020F3
:1055D000704700BF1424FF1F40E400E008E100E032
:1055E0001A491B4A1B48F8B50B681B4D046843F069
:1055F00080730B60136843F0010313602E6814B9C5
:1056000015E064699CB1237A002BFAD023682F68D7
:105610001B68204698472B68E188DB1B1B099AB260
:105620008B42A28088BFE2806469002CEBD10A4BD8
:105630000A4A1B6810880A4C9B1B1B0999B28342BB
:10564000218001D91180F8BDF8BD00BFFCED00E05C
:10565000001000E00824FF1F041000E0B824FF1F22
:10566000BE24FF1FF0B572B699B902688AB10379FA
:105670000F2B0ED8274C218841FA03F5ED070AD5E8
:1056800003F1007303F59063B2EB431F03D162B6DD
:10569000F0BD204C2188002341FA03F212F00102F0
:1056A00007D00133102BF7D162B6002203710260DC
:1056B000F0BD01259D402943218062B6164E174D4D
:1056C000174FDFF864E0D9B20171346844F0020486
:1056D00034602C6844F002042C60A6F580268224F5
:1056E000A5F5802503F100733C6003F59063223E2D
:1056F000243D0C4C8EF800105B0131702970217034
:1057000003601A605A609A60DA601A615A619A619D
:10571000DA61F0BDC024FF1F408004403C8004409B
:10572000008000401F8000401A80004003790F2B4A
:1057300012D80A4A10B4137072B6094904790A885B
:105740000123A34022EA03030B8062B61022002348
:105750005DF8044B02710360704700BF1A8000407F
:10576000C024FF1F10B4EFF3108272B6437F33B929
:10577000017F012908D0032910D00123437702B902
:1057800062B65DF8044B7047114C2168A1B1114914
:1057900043610B68836108605861EEE70E4C216835
:1057A00081B10E4943610B688361086058610C4BFD
:1057B0004FF080511960E0E7064B41618161206044
:1057C0001860DAE7054B4161816120601860EEE7FF
:1057D000D424FF1FD024FF1FC424FF1FC824FF1F91
:1057E00004ED00E070B5EFF3108272B60C4C206847
:1057F00080B10C4E00254369236073B19D6102B9ED
:1058000062B6457783689847EFF3108272B62068D6
:105810000028F0D102B962B670BD3360EFE700BF77
:10582000C424FF1FC824FF1FFFF7DCBF184A30B491
:105830001468002C27D0036821688B420ED2CB1A43
:1058400000218460C1602360E06010600223037562
:1058500030BC704711688B42144608D3A2685B1AAB
:105860000360002AF6D18260C460A060EEE7D268CF
:10587000C2608460E060C568CB1A0222A860236021
:10588000027530BC70478460C4601060DEE700BF02
:10589000CC24FF1FF8B5224E34682CB32368002BAC
:1058A0003AD1204F1D4604E03468ECB12368002B48
:1058B00032D1A36803B1DD602069336003682575C8
:1058C0001B68BB4221D1037F4560022BC46020D0FE
:1058D000FFF748FF6368002BE6D023602046FFF700
:1058E000A5FF3468002CE1D1EFF3108372B60E4AA5
:1058F00000211068116003B962B628B18468FFF70F
:1059000095FF20460028F9D1F8BD2246002198478E
:10591000E0E783689847DDE7013B2360E4E700BFE9
:10592000CC24FF1FC90F0000DC24FF1F024A1368AC
:1059300001331360FFF7AEBF0823FF1FF8B50E4613
:1059400071B17AB10746144600253B6816F8011B71
:105950001B6838469847013C0544F6D12846F8BDF7
:105960000846F8BD1046F8BD00B5064A036812881F
:105970005B6883B001A9ADF804200222984703B008
:105980005DF804FB90720000F0B507468BB0002A6A
:1059900033D0012A08BF0A2251B3212400E0F4B217
:1059A000B1FBF2F502FB1511C8B2092900F1300173
:1059B00098BFC8B20AA988BF3730214488BFC0B297
:1059C00001F8240C661E2946002DE8D133B1013CB4
:1059D000E4B20AAB23442D2203F8242C3B6801AA2D
:1059E00011195B683846C4F1220298470BB0F0BD2C
:1059F00030228DF825202124E8E70368C9B21B680E
:105A000098470BB0F0BD00BFF0B5164D2A680AB339
:105A10001549164BDFF85CE082FB016781FB02143D
:105A2000D617D1191444C6EB2141C6EB244403FB1D
:105A300004F40EFB112244F2A71303FB0243002BD4
:105A400002DA03F10043013BB3FBF0F22B6000FBF1
:105A50001230F0BD064B2B60B3FBF0F200FB1230AE
:105A6000F0BD00BFE024FF1F5F0B4E83ECF4FFFF8F
:105A700042CE0C1F1DF3010008B1FFF7C5BF7047F0
:105A800008B5FAF79FFDFAF7D7FE00F017F8FAE726
:105A9000FFF702BBFFF7DABAFFF7B4BAFFF7EEBAC7
:105AA000FFF7CABBFFF7A4BB08461146FFF710BBC0
:105AB0000846FFF791BB00BF704700BF38B52C4CBC
:105AC000237803B138BD01232370FFF7D7FA0028EC
:105AD00042D100F07BF800283BD100F00DF90028FE
